{
  "_format": "hh-sol-artifact-1",
  "contractName": "FundRaise",
  "sourceName": "contracts/Fundraise.sol",
  "abi": [
    {
      "inputs": [
        {
          "internalType": "address",
          "name": "_fundRaiser",
          "type": "address"
        },
        {
          "internalType": "address",
          "name": "_transferAddress",
          "type": "address"
        },
        {
          "internalType": "string",
          "name": "_name",
          "type": "string"
        },
        {
          "internalType": "uint256",
          "name": "_goal",
          "type": "uint256"
        },
        {
          "internalType": "address",
          "name": "_feeAddress",
          "type": "address"
        }
      ],
      "stateMutability": "nonpayable",
      "type": "constructor"
    },
    {
      "anonymous": false,
      "inputs": [
        {
          "indexed": true,
          "internalType": "address",
          "name": "previousOwner",
          "type": "address"
        },
        {
          "indexed": true,
          "internalType": "address",
          "name": "newOwner",
          "type": "address"
        }
      ],
      "name": "OwnershipTransferred",
      "type": "event"
    },
    {
      "inputs": [],
      "name": "GetTokenAddress",
      "outputs": [
        {
          "internalType": "address",
          "name": "",
          "type": "address"
        }
      ],
      "stateMutability": "view",
      "type": "function"
    },
    {
      "inputs": [],
      "name": "contribute",
      "outputs": [],
      "stateMutability": "payable",
      "type": "function"
    },
    {
      "inputs": [],
      "name": "currentTotal",
      "outputs": [
        {
          "internalType": "uint256",
          "name": "",
          "type": "uint256"
        }
      ],
      "stateMutability": "view",
      "type": "function"
    },
    {
      "inputs": [],
      "name": "fee",
      "outputs": [
        {
          "internalType": "uint256",
          "name": "",
          "type": "uint256"
        }
      ],
      "stateMutability": "view",
      "type": "function"
    },
    {
      "inputs": [],
      "name": "fundRaiser",
      "outputs": [
        {
          "internalType": "address",
          "name": "",
          "type": "address"
        }
      ],
      "stateMutability": "view",
      "type": "function"
    },
    {
      "inputs": [],
      "name": "goal",
      "outputs": [
        {
          "internalType": "uint256",
          "name": "",
          "type": "uint256"
        }
      ],
      "stateMutability": "view",
      "type": "function"
    },
    {
      "inputs": [],
      "name": "minumumContribution",
      "outputs": [
        {
          "internalType": "uint256",
          "name": "",
          "type": "uint256"
        }
      ],
      "stateMutability": "view",
      "type": "function"
    },
    {
      "inputs": [],
      "name": "name",
      "outputs": [
        {
          "internalType": "string",
          "name": "",
          "type": "string"
        }
      ],
      "stateMutability": "view",
      "type": "function"
    },
    {
      "inputs": [],
      "name": "owner",
      "outputs": [
        {
          "internalType": "address",
          "name": "",
          "type": "address"
        }
      ],
      "stateMutability": "view",
      "type": "function"
    },
    {
      "inputs": [],
      "name": "renounceOwnership",
      "outputs": [],
      "stateMutability": "nonpayable",
      "type": "function"
    },
    {
      "inputs": [],
      "name": "token",
      "outputs": [
        {
          "internalType": "contract IERC20",
          "name": "",
          "type": "address"
        }
      ],
      "stateMutability": "view",
      "type": "function"
    },
    {
      "inputs": [],
      "name": "transferAddress",
      "outputs": [
        {
          "internalType": "address",
          "name": "",
          "type": "address"
        }
      ],
      "stateMutability": "view",
      "type": "function"
    },
    {
      "inputs": [
        {
          "internalType": "address",
          "name": "newOwner",
          "type": "address"
        }
      ],
      "name": "transferOwnership",
      "outputs": [],
      "stateMutability": "nonpayable",
      "type": "function"
    },
    {
      "inputs": [],
      "name": "txFees",
      "outputs": [
        {
          "internalType": "uint256",
          "name": "",
          "type": "uint256"
        }
      ],
      "stateMutability": "view",
      "type": "function"
    },
    {
      "stateMutability": "payable",
      "type": "receive"
    }
  ],
  "bytecode": "0x6080604052662386f26fc100006007556000600855600060095566038d7ea4c68000600a553480156200003157600080fd5b5060405162002e3a38038062002e3a83398181016040528101906200005791906200040a565b620000776200006b620001e060201b60201c565b620001e860201b60201c565b30836040516200008790620002ac565b62000094929190620004f7565b604051809103906000f080158015620000b1573d6000803e3d6000fd5b50600160006101000a81548173ffffffffffffffffffffffffffffffffffffffff021916908373ffffffffffffffffffffffffffffffffffffffff16021790555084600260006101000a81548173ffffffffffffffffffffffffffffffffffffffff021916908373ffffffffffffffffffffffffffffffffffffffff16021790555083600360006101000a81548173ffffffffffffffffffffffffffffffffffffffff021916908373ffffffffffffffffffffffffffffffffffffffff16021790555082600590805190602001906200018c929190620002ba565b508160068190555080600460006101000a81548173ffffffffffffffffffffffffffffffffffffffff021916908373ffffffffffffffffffffffffffffffffffffffff160217905550505050505062000729565b600033905090565b60008060009054906101000a900473ffffffffffffffffffffffffffffffffffffffff169050816000806101000a81548173ffffffffffffffffffffffffffffffffffffffff021916908373ffffffffffffffffffffffffffffffffffffffff1602179055508173ffffffffffffffffffffffffffffffffffffffff168173ffffffffffffffffffffffffffffffffffffffff167f8be0079c531659141344cd1fd0a4f28419497f9722a3daafe3b4186f6b6457e060405160405180910390a35050565b611b6f80620012cb83390190565b828054620002c8906200061a565b90600052602060002090601f016020900481019282620002ec576000855562000338565b82601f106200030757805160ff191683800117855562000338565b8280016001018555821562000338579182015b82811115620003375782518255916020019190600101906200031a565b5b5090506200034791906200034b565b5090565b5b80821115620003665760008160009055506001016200034c565b5090565b6000620003816200037b8462000554565b6200052b565b9050828152602081018484840111156200039a57600080fd5b620003a7848285620005e4565b509392505050565b600081519050620003c081620006f5565b92915050565b600082601f830112620003d857600080fd5b8151620003ea8482602086016200036a565b91505092915050565b60008151905062000404816200070f565b92915050565b600080600080600060a086880312156200042357600080fd5b60006200043388828901620003af565b95505060206200044688828901620003af565b945050604086015167ffffffffffffffff8111156200046457600080fd5b6200047288828901620003c6565b93505060606200048588828901620003f3565b92505060806200049888828901620003af565b9150509295509295909350565b620004b081620005a6565b82525050565b6000620004c3826200058a565b620004cf818562000595565b9350620004e1818560208601620005e4565b620004ec81620006e4565b840191505092915050565b60006040820190506200050e6000830185620004a5565b8181036020830152620005228184620004b6565b90509392505050565b6000620005376200054a565b905062000545828262000650565b919050565b6000604051905090565b600067ffffffffffffffff821115620005725762000571620006b5565b5b6200057d82620006e4565b9050602081019050919050565b600081519050919050565b600082825260208201905092915050565b6000620005b382620005ba565b9050919050565b600073ffffffffffffffffffffffffffffffffffffffff82169050919050565b6000819050919050565b60005b8381101562000604578082015181840152602081019050620005e7565b8381111562000614576000848401525b50505050565b600060028204905060018216806200063357607f821691505b602082108114156200064a576200064962000686565b5b50919050565b6200065b82620006e4565b810181811067ffffffffffffffff821117156200067d576200067c620006b5565b5b80604052505050565b7f4e487b7100000000000000000000000000000000000000000000000000000000600052602260045260246000fd5b7f4e487b7100000000000000000000000000000000000000000000000000000000600052604160045260246000fd5b6000601f19601f8301169050919050565b6200070081620005a6565b81146200070c57600080fd5b50565b6200071a81620005da565b81146200072657600080fd5b50565b610b9280620007396000396000f3fe6080604052600436106100e15760003560e01c80639bb1eae21161007f578063f2fde38b11610059578063f2fde38b14610266578063f444fdd81461028f578063fc0c546a146102ba578063ff2073d7146102e5576100e8565b80639bb1eae214610206578063d7bb99ba14610231578063ddca3f431461023b576100e8565b806340193883116100bb578063401938831461016e578063531d2e8514610199578063715018a6146101c45780638da5cb5b146101db576100e8565b806302ea1172146100ed57806306fdde03146101185780633da8bfc914610143576100e8565b366100e857005b600080fd5b3480156100f957600080fd5b50610102610310565b60405161010f919061096e565b60405180910390f35b34801561012457600080fd5b5061012d610316565b60405161013a919061090c565b60405180910390f35b34801561014f57600080fd5b506101586103a4565b604051610165919061096e565b60405180910390f35b34801561017a57600080fd5b506101836103aa565b604051610190919061096e565b60405180910390f35b3480156101a557600080fd5b506101ae6103b0565b6040516101bb91906108ad565b60405180910390f35b3480156101d057600080fd5b506101d96103da565b005b3480156101e757600080fd5b506101f0610462565b6040516101fd91906108ad565b60405180910390f35b34801561021257600080fd5b5061021b61048b565b604051610228919061096e565b60405180910390f35b610239610491565b005b34801561024757600080fd5b50610250610549565b60405161025d919061096e565b60405180910390f35b34801561027257600080fd5b5061028d600480360381019061028891906107af565b61054f565b005b34801561029b57600080fd5b506102a4610647565b6040516102b191906108ad565b60405180910390f35b3480156102c657600080fd5b506102cf61066d565b6040516102dc91906108f1565b60405180910390f35b3480156102f157600080fd5b506102fa610693565b60405161030791906108ad565b60405180910390f35b60095481565b6005805461032390610a44565b80601f016020809104026020016040519081016040528092919081815260200182805461034f90610a44565b801561039c5780601f106103715761010080835404028352916020019161039c565b820191906000526020600020905b81548152906001019060200180831161037f57829003601f168201915b505050505081565b60085481565b60065481565b6000600160009054906101000a900473ffffffffffffffffffffffffffffffffffffffff16905090565b6103e26106b9565b73ffffffffffffffffffffffffffffffffffffffff16610400610462565b73ffffffffffffffffffffffffffffffffffffffff1614610456576040517f08c379a000000000000000000000000000000000000000000000000000000000815260040161044d9061094e565b60405180910390fd5b61046060006106c1565b565b60008060009054906101000a900473ffffffffffffffffffffffffffffffffffffffff16905090565b60075481565b6000349050600160009054906101000a900473ffffffffffffffffffffffffffffffffffffffff1673ffffffffffffffffffffffffffffffffffffffff1663a9059cbb33836040518363ffffffff1660e01b81526004016104f39291906108c8565b602060405180830381600087803b15801561050d57600080fd5b505af1158015610521573d6000803e3d6000fd5b505050506040513d601f19601f8201168201806040525081019061054591906107d8565b5050565b600a5481565b6105576106b9565b73ffffffffffffffffffffffffffffffffffffffff16610575610462565b73ffffffffffffffffffffffffffffffffffffffff16146105cb576040517f08c379a00000000000000000000000000000000000000000000000000000000081526004016105c29061094e565b60405180910390fd5b600073ffffffffffffffffffffffffffffffffffffffff168173ffffffffffffffffffffffffffffffffffffffff16141561063b576040517f08c379a00000000000000000000000000000000000000000000000000000000081526004016106329061092e565b60405180910390fd5b610644816106c1565b50565b600360009054906101000a900473ffffffffffffffffffffffffffffffffffffffff1681565b600160009054906101000a900473ffffffffffffffffffffffffffffffffffffffff1681565b600260009054906101000a900473ffffffffffffffffffffffffffffffffffffffff1681565b600033905090565b60008060009054906101000a900473ffffffffffffffffffffffffffffffffffffffff169050816000806101000a81548173ffffffffffffffffffffffffffffffffffffffff021916908373ffffffffffffffffffffffffffffffffffffffff1602179055508173ffffffffffffffffffffffffffffffffffffffff168173ffffffffffffffffffffffffffffffffffffffff167f8be0079c531659141344cd1fd0a4f28419497f9722a3daafe3b4186f6b6457e060405160405180910390a35050565b60008135905061079481610b2e565b92915050565b6000815190506107a981610b45565b92915050565b6000602082840312156107c157600080fd5b60006107cf84828501610785565b91505092915050565b6000602082840312156107ea57600080fd5b60006107f88482850161079a565b91505092915050565b61080a816109a5565b82525050565b610819816109ed565b82525050565b600061082a82610989565b6108348185610994565b9350610844818560208601610a11565b61084d81610aa5565b840191505092915050565b6000610865602683610994565b915061087082610ab6565b604082019050919050565b6000610888602083610994565b915061089382610b05565b602082019050919050565b6108a7816109e3565b82525050565b60006020820190506108c26000830184610801565b92915050565b60006040820190506108dd6000830185610801565b6108ea602083018461089e565b9392505050565b60006020820190506109066000830184610810565b92915050565b60006020820190508181036000830152610926818461081f565b905092915050565b6000602082019050818103600083015261094781610858565b9050919050565b600060208201905081810360008301526109678161087b565b9050919050565b6000602082019050610983600083018461089e565b92915050565b600081519050919050565b600082825260208201905092915050565b60006109b0826109c3565b9050919050565b60008115159050919050565b600073ffffffffffffffffffffffffffffffffffffffff82169050919050565b6000819050919050565b60006109f8826109ff565b9050919050565b6000610a0a826109c3565b9050919050565b60005b83811015610a2f578082015181840152602081019050610a14565b83811115610a3e576000848401525b50505050565b60006002820490506001821680610a5c57607f821691505b60208210811415610a7057610a6f610a76565b5b50919050565b7f4e487b7100000000000000000000000000000000000000000000000000000000600052602260045260246000fd5b6000601f19601f8301169050919050565b7f4f776e61626c653a206e6577206f776e657220697320746865207a65726f206160008201527f6464726573730000000000000000000000000000000000000000000000000000602082015250565b7f4f776e61626c653a2063616c6c6572206973206e6f7420746865206f776e6572600082015250565b610b37816109a5565b8114610b4257600080fd5b50565b610b4e816109b7565b8114610b5957600080fd5b5056fea2646970667358221220e9df207f87f56c6bf6ff1412344dc55a67a33d665f7386fead89162807ae990264736f6c63430008040033608060405260126005553480156200001657600080fd5b5060405162001b6f38038062001b6f83398181016040528101906200003c9190620003a7565b806040518060400160405280600381526020017f545255000000000000000000000000000000000000000000000000000000000081525081600390805190602001906200008b9291906200026e565b508060049080519060200190620000a49291906200026e565b505050620000e382600554600a620000bd9190620005a0565b6c0c9f2c9cd04674edea40000000620000d79190620006dd565b620000eb60201b60201c565b50506200090c565b600073ffffffffffffffffffffffffffffffffffffffff168273ffffffffffffffffffffffffffffffffffffffff1614156200015e576040517f08c379a0000000000000000000000000000000000000000000000000000000008152600401620001559062000439565b60405180910390fd5b62000172600083836200026460201b60201c565b8060026000828254620001869190620004e8565b92505081905550806000808473ffffffffffffffffffffffffffffffffffffffff1673ffffffffffffffffffffffffffffffffffffffff1681526020019081526020016000206000828254620001dd9190620004e8565b925050819055508173ffffffffffffffffffffffffffffffffffffffff16600073ffffffffffffffffffffffffffffffffffffffff167fddf252ad1be2c89b69c2b068fc378daa952ba7f163c4a11628f55a4df523b3ef836040516200024491906200045b565b60405180910390a362000260600083836200026960201b60201c565b5050565b505050565b505050565b8280546200027c90620007b2565b90600052602060002090601f016020900481019282620002a05760008555620002ec565b82601f10620002bb57805160ff1916838001178555620002ec565b82800160010185558215620002ec579182015b82811115620002eb578251825591602001919060010190620002ce565b5b509050620002fb9190620002ff565b5090565b5b808211156200031a57600081600090555060010162000300565b5090565b6000620003356200032f84620004a1565b62000478565b9050828152602081018484840111156200034e57600080fd5b6200035b8482856200077c565b509392505050565b6000815190506200037481620008f2565b92915050565b600082601f8301126200038c57600080fd5b81516200039e8482602086016200031e565b91505092915050565b60008060408385031215620003bb57600080fd5b6000620003cb8582860162000363565b925050602083015167ffffffffffffffff811115620003e957600080fd5b620003f7858286016200037a565b9150509250929050565b600062000410601f83620004d7565b91506200041d82620008c9565b602082019050919050565b620004338162000772565b82525050565b60006020820190508181036000830152620004548162000401565b9050919050565b600060208201905062000472600083018462000428565b92915050565b60006200048462000497565b9050620004928282620007e8565b919050565b6000604051905090565b600067ffffffffffffffff821115620004bf57620004be6200087c565b5b620004ca82620008ab565b9050602081019050919050565b600082825260208201905092915050565b6000620004f58262000772565b9150620005028362000772565b9250827fffffffffffffffffffffffffffffffffffffffffffffffffffffffffffffffff038211156200053a57620005396200081e565b5b828201905092915050565b6000808291508390505b600185111562000597578086048111156200056f576200056e6200081e565b5b60018516156200057f5780820291505b80810290506200058f85620008bc565b94506200054f565b94509492505050565b6000620005ad8262000772565b9150620005ba8362000772565b9250620005e97fffffffffffffffffffffffffffffffffffffffffffffffffffffffffffffffff8484620005f1565b905092915050565b600082620006035760019050620006d6565b81620006135760009050620006d6565b81600181146200062c576002811462000637576200066d565b6001915050620006d6565b60ff8411156200064c576200064b6200081e565b5b8360020a9150848211156200066657620006656200081e565b5b50620006d6565b5060208310610133831016604e8410600b8410161715620006a75782820a905083811115620006a157620006a06200081e565b5b620006d6565b620006b6848484600162000545565b92509050818404811115620006d057620006cf6200081e565b5b81810290505b9392505050565b6000620006ea8262000772565b9150620006f78362000772565b9250817fffffffffffffffffffffffffffffffffffffffffffffffffffffffffffffffff04831182151516156200073357620007326200081e565b5b828202905092915050565b60006200074b8262000752565b9050919050565b600073ffffffffffffffffffffffffffffffffffffffff82169050919050565b6000819050919050565b60005b838110156200079c5780820151818401526020810190506200077f565b83811115620007ac576000848401525b50505050565b60006002820490506001821680620007cb57607f821691505b60208210811415620007e257620007e16200084d565b5b50919050565b620007f382620008ab565b810181811067ffffffffffffffff821117156200081557620008146200087c565b5b80604052505050565b7f4e487b7100000000000000000000000000000000000000000000000000000000600052601160045260246000fd5b7f4e487b7100000000000000000000000000000000000000000000000000000000600052602260045260246000fd5b7f4e487b7100000000000000000000000000000000000000000000000000000000600052604160045260246000fd5b6000601f19601f8301169050919050565b60008160011c9050919050565b7f45524332303a206d696e7420746f20746865207a65726f206164647265737300600082015250565b620008fd816200073e565b81146200090957600080fd5b50565b611253806200091c6000396000f3fe608060405234801561001057600080fd5b50600436106100a95760003560e01c80633950935111610071578063395093511461016857806370a082311461019857806395d89b41146101c8578063a457c2d7146101e6578063a9059cbb14610216578063dd62ed3e14610246576100a9565b806306fdde03146100ae578063095ea7b3146100cc57806318160ddd146100fc57806323b872dd1461011a578063313ce5671461014a575b600080fd5b6100b6610276565b6040516100c39190610d19565b60405180910390f35b6100e660048036038101906100e19190610b67565b610308565b6040516100f39190610cfe565b60405180910390f35b61010461032b565b6040516101119190610e1b565b60405180910390f35b610134600480360381019061012f9190610b18565b610335565b6040516101419190610cfe565b60405180910390f35b610152610364565b60405161015f9190610e36565b60405180910390f35b610182600480360381019061017d9190610b67565b61036d565b60405161018f9190610cfe565b60405180910390f35b6101b260048036038101906101ad9190610ab3565b6103a4565b6040516101bf9190610e1b565b60405180910390f35b6101d06103ec565b6040516101dd9190610d19565b60405180910390f35b61020060048036038101906101fb9190610b67565b61047e565b60405161020d9190610cfe565b60405180910390f35b610230600480360381019061022b9190610b67565b6104f5565b60405161023d9190610cfe565b60405180910390f35b610260600480360381019061025b9190610adc565b610518565b60405161026d9190610e1b565b60405180910390f35b60606003805461028590610f4b565b80601f01602080910402602001604051908101604052809291908181526020018280546102b190610f4b565b80156102fe5780601f106102d3576101008083540402835291602001916102fe565b820191906000526020600020905b8154815290600101906020018083116102e157829003601f168201915b5050505050905090565b60008061031361059f565b90506103208185856105a7565b600191505092915050565b6000600254905090565b60008061034061059f565b905061034d858285610772565b6103588585856107fe565b60019150509392505050565b60006012905090565b60008061037861059f565b905061039981858561038a8589610518565b6103949190610e6d565b6105a7565b600191505092915050565b60008060008373ffffffffffffffffffffffffffffffffffffffff1673ffffffffffffffffffffffffffffffffffffffff168152602001908152602001600020549050919050565b6060600480546103fb90610f4b565b80601f016020809104026020016040519081016040528092919081815260200182805461042790610f4b565b80156104745780601f1061044957610100808354040283529160200191610474565b820191906000526020600020905b81548152906001019060200180831161045757829003601f168201915b5050505050905090565b60008061048961059f565b905060006104978286610518565b9050838110156104dc576040517f08c379a00000000000000000000000000000000000000000000000000000000081526004016104d390610dfb565b60405180910390fd5b6104e982868684036105a7565b60019250505092915050565b60008061050061059f565b905061050d8185856107fe565b600191505092915050565b6000600160008473ffffffffffffffffffffffffffffffffffffffff1673ffffffffffffffffffffffffffffffffffffffff16815260200190815260200160002060008373ffffffffffffffffffffffffffffffffffffffff1673ffffffffffffffffffffffffffffffffffffffff16815260200190815260200160002054905092915050565b600033905090565b600073ffffffffffffffffffffffffffffffffffffffff168373ffffffffffffffffffffffffffffffffffffffff161415610617576040517f08c379a000000000000000000000000000000000000000000000000000000000815260040161060e90610ddb565b60405180910390fd5b600073ffffffffffffffffffffffffffffffffffffffff168273ffffffffffffffffffffffffffffffffffffffff161415610687576040517f08c379a000000000000000000000000000000000000000000000000000000000815260040161067e90610d5b565b60405180910390fd5b80600160008573ffffffffffffffffffffffffffffffffffffffff1673ffffffffffffffffffffffffffffffffffffffff16815260200190815260200160002060008473ffffffffffffffffffffffffffffffffffffffff1673ffffffffffffffffffffffffffffffffffffffff168152602001908152602001600020819055508173ffffffffffffffffffffffffffffffffffffffff168373ffffffffffffffffffffffffffffffffffffffff167f8c5be1e5ebec7d5bd14f71427d1e84f3dd0314c0f7b2291e5b200ac8c7c3b925836040516107659190610e1b565b60405180910390a3505050565b600061077e8484610518565b90507fffffffffffffffffffffffffffffffffffffffffffffffffffffffffffffffff81146107f857818110156107ea576040517f08c379a00000000000000000000000000000000000000000000000000000000081526004016107e190610d7b565b60405180910390fd5b6107f784848484036105a7565b5b50505050565b600073ffffffffffffffffffffffffffffffffffffffff168373ffffffffffffffffffffffffffffffffffffffff16141561086e576040517f08c379a000000000000000000000000000000000000000000000000000000000815260040161086590610dbb565b60405180910390fd5b600073ffffffffffffffffffffffffffffffffffffffff168273ffffffffffffffffffffffffffffffffffffffff1614156108de576040517f08c379a00000000000000000000000000000000000000000000000000000000081526004016108d590610d3b565b60405180910390fd5b6108e9838383610a7f565b60008060008573ffffffffffffffffffffffffffffffffffffffff1673ffffffffffffffffffffffffffffffffffffffff1681526020019081526020016000205490508181101561096f576040517f08c379a000000000000000000000000000000000000000000000000000000000815260040161096690610d9b565b60405180910390fd5b8181036000808673ffffffffffffffffffffffffffffffffffffffff1673ffffffffffffffffffffffffffffffffffffffff16815260200190815260200160002081905550816000808573ffffffffffffffffffffffffffffffffffffffff1673ffffffffffffffffffffffffffffffffffffffff1681526020019081526020016000206000828254610a029190610e6d565b925050819055508273ffffffffffffffffffffffffffffffffffffffff168473ffffffffffffffffffffffffffffffffffffffff167fddf252ad1be2c89b69c2b068fc378daa952ba7f163c4a11628f55a4df523b3ef84604051610a669190610e1b565b60405180910390a3610a79848484610a84565b50505050565b505050565b505050565b600081359050610a98816111ef565b92915050565b600081359050610aad81611206565b92915050565b600060208284031215610ac557600080fd5b6000610ad384828501610a89565b91505092915050565b60008060408385031215610aef57600080fd5b6000610afd85828601610a89565b9250506020610b0e85828601610a89565b9150509250929050565b600080600060608486031215610b2d57600080fd5b6000610b3b86828701610a89565b9350506020610b4c86828701610a89565b9250506040610b5d86828701610a9e565b9150509250925092565b60008060408385031215610b7a57600080fd5b6000610b8885828601610a89565b9250506020610b9985828601610a9e565b9150509250929050565b610bac81610ed5565b82525050565b6000610bbd82610e51565b610bc78185610e5c565b9350610bd7818560208601610f18565b610be081610fdb565b840191505092915050565b6000610bf8602383610e5c565b9150610c0382610fec565b604082019050919050565b6000610c1b602283610e5c565b9150610c268261103b565b604082019050919050565b6000610c3e601d83610e5c565b9150610c498261108a565b602082019050919050565b6000610c61602683610e5c565b9150610c6c826110b3565b604082019050919050565b6000610c84602583610e5c565b9150610c8f82611102565b604082019050919050565b6000610ca7602483610e5c565b9150610cb282611151565b604082019050919050565b6000610cca602583610e5c565b9150610cd5826111a0565b604082019050919050565b610ce981610f01565b82525050565b610cf881610f0b565b82525050565b6000602082019050610d136000830184610ba3565b92915050565b60006020820190508181036000830152610d338184610bb2565b905092915050565b60006020820190508181036000830152610d5481610beb565b9050919050565b60006020820190508181036000830152610d7481610c0e565b9050919050565b60006020820190508181036000830152610d9481610c31565b9050919050565b60006020820190508181036000830152610db481610c54565b9050919050565b60006020820190508181036000830152610dd481610c77565b9050919050565b60006020820190508181036000830152610df481610c9a565b9050919050565b60006020820190508181036000830152610e1481610cbd565b9050919050565b6000602082019050610e306000830184610ce0565b92915050565b6000602082019050610e4b6000830184610cef565b92915050565b600081519050919050565b600082825260208201905092915050565b6000610e7882610f01565b9150610e8383610f01565b9250827fffffffffffffffffffffffffffffffffffffffffffffffffffffffffffffffff03821115610eb857610eb7610f7d565b5b828201905092915050565b6000610ece82610ee1565b9050919050565b60008115159050919050565b600073ffffffffffffffffffffffffffffffffffffffff82169050919050565b6000819050919050565b600060ff82169050919050565b60005b83811015610f36578082015181840152602081019050610f1b565b83811115610f45576000848401525b50505050565b60006002820490506001821680610f6357607f821691505b60208210811415610f7757610f76610fac565b5b50919050565b7f4e487b7100000000000000000000000000000000000000000000000000000000600052601160045260246000fd5b7f4e487b7100000000000000000000000000000000000000000000000000000000600052602260045260246000fd5b6000601f19601f8301169050919050565b7f45524332303a207472616e7366657220746f20746865207a65726f206164647260008201527f6573730000000000000000000000000000000000000000000000000000000000602082015250565b7f45524332303a20617070726f766520746f20746865207a65726f20616464726560008201527f7373000000000000000000000000000000000000000000000000000000000000602082015250565b7f45524332303a20696e73756666696369656e7420616c6c6f77616e6365000000600082015250565b7f45524332303a207472616e7366657220616d6f756e742065786365656473206260008201527f616c616e63650000000000000000000000000000000000000000000000000000602082015250565b7f45524332303a207472616e736665722066726f6d20746865207a65726f20616460008201527f6472657373000000000000000000000000000000000000000000000000000000602082015250565b7f45524332303a20617070726f76652066726f6d20746865207a65726f2061646460008201527f7265737300000000000000000000000000000000000000000000000000000000602082015250565b7f45524332303a2064656372656173656420616c6c6f77616e63652062656c6f7760008201527f207a65726f000000000000000000000000000000000000000000000000000000602082015250565b6111f881610ec3565b811461120357600080fd5b50565b61120f81610f01565b811461121a57600080fd5b5056fea26469706673582212205e1f02f2c069ca61c800081315b98eb892edc8588d3b53efc275a4df2489008a64736f6c63430008040033",
  "linkReferences": {},
  "deployedLinkReferences": {}
}